:020000040000FA
:0400000007EF00F016
:0A000800458279ED1DF0B0EF22F003
:100800000054656D702E496E74652E3A0054656D06
:10081000702E457874652E3A0054656D702E4174C3
:1008200069762E3A0054656D702E496465616C3AA4
:1008300000252E32662000252E326600494E4600E5
:100840004E414E00696E66006E616E006C6600255A
:050850006400430000FC
:10085600000E0001D26F000ED16FADC0E3F0AEC046
:10086600E4F0AFC0E5F0B0C0E6F0E6BF3FEF04F05D
:100876003DEF04F055EF04F0000ED26F010ED16F7C
:10088600E3C060F0E4C061F0E5C062F0E6C063F08A
:10089600C5EC24F060C0E3F061C0E4F062C0E5F0AE
:1008A60063C0E6F0000E0001EA6F000EE96F2FC08C
:1008B600D6F030C0D7F0D151D211D8A465EF04F0EC
:1008C60067EF04F06EEF04F033A46CEF04F06EEF04
:1008D60004F088EF04F0D151D211D8A475EF04F0DA
:1008E60077EF04F07DEF04F0000EBC6F2B0EBB6FAC
:1008F60081EF04F0000EBC6F2D0EBB6FBBC008F17C
:10090600E94BEA2BD607D8A0D707E3C060F0E4C0CE
:1009160061F0E5C062F0E6C063F0F9EC1CF000019E
:1009260060056111D8A49AEF04F09CEF04F0F3EF90
:1009360004F0BF0EB26FFF0EB36FB151B46FB56B5B
:10094600B251B427B351B523B5510AE11A0EB45DBD
:10095600D8A0B0EF04F0B3EF04F0010EB4EF04F04A
:10096600000EBD6FBE6BBD51BE11D8B4BDEF04F015
:10097600BFEF04F0CDEF04F0080EE925606F010E1D
:10098600EA21616F3C0E626F080E636FDFEC22F0A6
:10099600D9EF04F0080EE925606F010EEA21616FB8
:1009A600440E626F080E636FDFEC22F00001FD0E4D
:1009B600D627FF0ED723ABC070F0ACC071F0080E7F
:1009C6000001726F010E736FD6C074F0D7C075F058
:1009D600C8EC1EF070C0ABF071C0ACF009EF0AF0C5
:1009E600E3C060F0E4C061F0E5C062F0E6C063F029
:1009F600F9EC1CF0000160516111D8A405EF05F077
:100A060007EF05F046EF05F0BF0EB26FFF0EB36FAE
:100A1600B151B46FB56BB251B427B351B523B551CB
:100A26000AE11A0EB45DD8A01BEF05F01EEF05F023
:100A3600010E1FEF05F0000EBF6FC06BBF51C01156
:100A4600D8B428EF05F02AEF05F038EF05F0080EC8
:100A5600E925606F010EEA21616F400E626F080E94
:100A6600636FDFEC22F0D9EF04F0080EE925606F22
:100A7600010EEA21616F480E626F080E636FDFECAC
:100A860022F0D9EF04F0000EEB6F000EEC6F800E33
:100A9600ED6F3F0EEE6F000EE86F000EE76FE3C0DE
:100AA60060F0E4C061F0E5C062F0E6C063F0000EFD
:100AB600646F000E656F000E666F000E676F4AEC7E
:100AC60020F00001D8B06AEF05F06CEF05F0F1EF09
:100AD60005F08BEF05F0EBC076F0ECC077F0EDC0DB
:100AE60078F0EEC079F0000E7A6F000E7B6F200E64
:100AF6007C6F410E7D6F0EEC0FF076C0EBF077C089
:100B0600ECF078C0EDF079C0EEF00001E74BE82B91
:100B1600E3C09FF0E4C0A0F0E5C0A1F0E6C0A2F0FB
:100B2600000E7A6F000E7B6F200E7C6F410E7D6F7C
:100B3600EBC076F0ECC077F0EDC078F0EEC079F05F
:100B46000EEC0FF076C0A3F077C0A4F078C0A5F045
:100B560079C0A6F076EC1CF00001D8B0B5EF05F030
:100B6600B7EF05F06EEF05F0D7EF05F0EBC076F0C6
:100B7600ECC077F0EDC078F0EEC079F0000E7A6F39
:100B8600000E7B6F200E7C6F410E7D6F24EC11F002
:100B960076C0EBF077C0ECF078C0EDF079C0EEF0FF
:100BA6000001E707D8A0E807E3C09FF0E4C0A0F083
:100BB600E5C0A1F0E6C0A2F0EBC0A3F0ECC0A4F043
:100BC600EDC0A5F0EEC0A6F076EC1CF00001D8A0B2
:100BD600EFEF05F0F1EF05F0B9EF05F0B1C066F003
:100BE600676B1FEC22F000016651D86FD8C0D5F0B4
:100BF600670ED819D8A402EF06F004EF06F02AEF24
:100C060006F031503210D8A40BEF06F00DEF06F0C7
:100C160011EF06F0000E326E010E316E32BE1EEF7F
:100C260006F0325006E13104D8B01CEF06F01EEF94
:100C360006F024EF06F0000ED46F060ED36F33EFE6
:100C460006F031C0D3F032C0D4F033EF06F032BE36
:100C56002FEF06F031EF06F01EEF06F024EF06F058
:100C6600670ED819D8A43AEF06F03CEF06F06BEF02
:100C760006F0E8AF4AEF06F0FC0EE75DFF0EE85916
:100C8600D8A048EF06F04AEF06F069EF06F0FF0E2F
:100C9600B26FFF0EB36FD3C0B4F0D4C0B5F0B2518B
:100CA600B427B351B523E751B45DB551800AB66F89
:100CB600E851800AB659D8A063EF06F065EF06F052
:100CC60069EF06F0660ED56F6BEF06F0650ED56F11
:100CD600D3C0CBF0D4C0CCF0670ED819D8A476EF29
:100CE60006F078EF06F088EF06F0660ED519D8A460
:100CF6007FEF06F081EF06F08AEF06F0E8BF88EF97
:100D060006F086EF06F08AEF06F0CB4BCC2B660E8C
:100D1600D519D8A491EF06F093EF06F0B3EF06F0DD
:100D2600E8BF9AEF06F098EF06F0A6EF06F0000E81
:100D3600EB6F000EEC6F800EED6F3F0EEE6F000E48
:100D4600E86F000EE76F670ED819D8B4ADEF06F05E
:100D5600AFEF06F0B3EF06F0E751CB27E851CC230F
:100D6600000EE26F000EE16FE3C0D9F0E4C0DAF0E6
:100D7600E5C0DBF0E6C0DCF0EBC0B7F0ECC0B8F0E5
:100D8600EDC0B9F0EEC0BAF045EF07F0D9C076F085
:100D9600DAC077F0DBC078F0DCC079F0EBC07AF02F
:100DA600ECC07BF0EDC07CF0EEC07DF024EC11F0E1
:100DB60076C08FF077C090F078C091F079C092F04D
:100DC6006FEC15F08FC0DDF090C0DEF091C0DFF063
:100DD60092C0E0F0DDC060F0DEC061F0DFC062F01E
:100DE600E0C063F0F2EC1BF060C0CFF061C0D0F061
:100DF600D9C09FF0DAC0A0F0DBC0A1F0DCC0A2F041
:100E0600EBC07AF0ECC07BF0EDC07CF0EEC07DF07C
:100E1600DDC076F0DEC077F0DFC078F0E0C079F0B4
:100E26000EEC0FF076C0A3F077C0A4F078C0A5F062
:100E360079C0A6F0DFEC23F09FC0D9F0A0C0DAF0AD
:100E4600A1C0DBF0A2C0DCF0EBC076F0ECC077F01E
:100E5600EDC078F0EEC079F0000E00017A6F000E5A
:100E66007B6F200E7C6F410E7D6F24EC11F076C0F7
:100E7600EBF077C0ECF078C0EDF079C0EEF0000151
:100E8600E14BE22BCB51E15DE251800AB26FCC51CE
:100E9600800AB259D8A052EF07F054EF07F0C9EF15
:100EA60006F0EBC076F0ECC077F0EDC078F0EEC05F
:100EB60079F0000E7A6F000E7B6FA00E7C6F400EED
:100EC6007D6F0EEC0FF076C0DDF077C0DEF078C0F7
:100ED600DFF079C0E0F0D9C09FF0DAC0A0F0DBC047
:100EE600A1F0DCC0A2F0DDC0A3F0DEC0A4F0DFC03C
:100EF600A5F0E0C0A6F076EC1CF00001D8B086EFB5
:100F060007F088EF07F092EF07F0000EDD6F000E96
:100F1600DE6F000EDF6F000EE06FBBEF07F0D9C08B
:100F260060F0DAC061F0DBC062F0DCC063F0DDC007
:100F360064F0DEC065F0DFC066F0E0C067F04AEC42
:100F460020F00001D8A0AAEF07F0ACEF07F0BBEF46
:100F560007F0CFB1B1EF07F0B3EF07F0BBEF07F043
:100F6600000EDD6F000EDE6F000EDF6F000EE06F0D
:100F7600E3C08FF0E4C090F0E5C091F0E6C092F0D7
:100F8600DDC093F0DEC094F0DFC095F0E0C096F0CF
:100F9600ADEC0CF08FC0D9F090C0DAF091C0DBF068
:100FA60092C0DCF0B7C0EBF0B8C0ECF0B9C0EDF021
:100FB600BAC0EEF0650E0001D519D8B4E5EF07F01A
:100FC600E7EF07F0EDEF07F0E7C0CDF0E8C0CEF0B1
:100FD600F1EF07F0000ECE6F000ECD6F000ECA6F58
:100FE600000EC96F000EC86F000EC76F000EE26FCD
:100FF600000EE16FEEEF08F0D9C076F0DAC077F0B8
:10100600DBC078F0DCC079F0EBC07AF0ECC07BF0A6
:10101600EDC07CF0EEC07DF024EC11F076C08FF0D0
:1010260077C090F078C091F079C092F06FEC15F02F
:101036008FC0DDF090C0DEF091C0DFF092C0E0F02E
:10104600DDC060F0DEC061F0DFC062F0E0C063F0DA
:10105600F2EC1BF060C0CFF061C0D0F033B836EFD1
:1010660008F038EF08F056EF08F00001CF51D01124
:10107600D8A440EF08F042EF08F056EF08F0670EEC
:10108600D819D8A449EF08F04BEF08F056EF08F04E
:10109600CEBF52EF08F050EF08F056EF08F0C74BFE
:1010A600C82BA1EF08F00001C951CA11D8A45EEF00
:1010B60008F060EF08F08AEF08F0CEBF67EF08F09F
:1010C60065EF08F08AEF08F0080EE925D96E010EE3
:1010D600EA21DA6E2E0EDF6EE94BEA2BD607D8A090
:1010E600D707000ECA6F010EC96F8AEF08F0080E07
:1010F600E925D96E010EEA21DA6E300EDF6EE94B74
:10110600EA2BD607D8A0D707C707D8A0C807C75164
:10111600C811D8A491EF08F093EF08F07AEF08F021
:10112600080EE925D96E010EEA21DA6ECF51300F8D
:10113600DF6EE94BEA2BD607D8A0D707D9C09FF0B8
:10114600DAC0A0F0DBC0A1F0DCC0A2F0EBC07AF000
:10115600ECC07BF0EDC07CF0EEC07DF0DDC076F03B
:10116600DEC077F0DFC078F0E0C079F00EEC0FF06B
:1011760076C0A3F077C0A4F078C0A5F079C0A6F039
:10118600DFEC23F09FC0D9F0A0C0DAF0A1C0DBF0FD
:10119600A2C0DCF0EBC076F0ECC077F0EDC078F0E2
:1011A600EEC079F0000E00017A6F000E7B6F200E04
:1011B6007C6F410E7D6F24EC11F076C0EBF077C0AA
:1011C600ECF078C0EDF079C0EEF00001CD07D8A0C4
:1011D600CE07E14BE22BCB51E15DE251800AB26FC3
:1011E600CC51800AB259D8B0FBEF08F0FDEF08F0F9
:1011F6000BEF09F0EABF09EF09F0EA5109E14B0EDE
:10120600E95DD8A009EF09F00BEF09F0FFEF07F051
:10121600C951CA11D8A412EF09F014EF09F025EF4D
:1012260009F033A819EF09F01BEF09F025EF09F0D3
:10123600080EE925D96E010EEA21DA6E2E0EDF6E52
:10124600E94BEA2B080EE925D96E010EEA21DA6E82
:10125600000EDF6E650ED519D8A434EF09F036EF0F
:1012660009F0DEEF04F0000EE26F4F0EE16F080E9C
:10127600E125D96E010EE221DA6E000EDF6E000E58
:10128600D26F000ED16FE8BF4DEF09F04BEF09F0BA
:1012960055EF09F0000ED26F010ED16FE76DE81F12
:1012A600D8B0E82B000ED46F020ED36F87EF09F08B
:1012B600E107D8A0E207080EE125D96E010EE2216A
:1012C600DA6EE7C060F0E8C061F0000E636F0A0EE8
:1012D600626FF1EC1FF000016051300FDF6EE7C066
:1012E60060F0E8C061F0000E636F0A0E626F2CECCE
:1012F6001FF060C0E7F061C0E8F00001D307D8A096
:10130600D407D607D8A0D707E751E811D8A48EEF9F
:1013160009F090EF09F05BEF09F0D4BF9DEF09F0FB
:10132600D45106E1D305D8B09BEF09F09DEF09F043
:101336005BEF09F0E107D8A0E207D151D211D8A49A
:10134600A7EF09F0A9EF09F0AFEF09F0000EC26FA1
:101356002B0EC16FB3EF09F0000EC26F2D0EC16FD9
:10136600080EE125D96E010EE221DA6EC1C0DFFF5B
:10137600D607D8A0D707E107D8A0E207BF0EB26FFD
:10138600FF0EB36FB151B46FB56BB251B427B35101
:10139600B523B5510AE11A0EB45DD8A0D5EF09F010
:1013A600D8EF09F0010ED9EF09F0000EC56FC66B34
:1013B600C551C611D8A4E2EF09F0E4EF09F0EAEF4F
:1013C60009F0000EC46F650EC36FEEEF09F0000E54
:1013D600C46F450EC36F080EE125D96E010EE221DA
:1013E600DA6EC3C0DFFFD607D8A0D707080EE925F7
:1013F600606F010EEA21616F080EE125626F010E32
:10140600E221636FDFEC22F0DEEF04F01200F1C0A0
:10141600D9FFF2C0DAFFDECFF6FFDDCFF7FF080017
:10142600F550250AD8A41AEF0AF01CEF0AF090EF3F
:101436000CF0F1C0D9FFF2C0DAFFDE2A000EDD2281
:10144600000E306E000E2F6E2FC033F030C034F019
:1014560031683268F1C0D9FFF2C0DAFFDECFF6FF9D
:10146600DDCFF7FF0800F5502E0AD8A43DEF0AF0AD
:101476003FEF0AF0BEEF0AF0000E326E000E316E3C
:10148600F1C0D9FFF2C0DAFFDE2A000EDD22F1C07C
:10149600D9FFF2C0DAFFDECFF6FFDDCFF7FF080097
:1014A600F5502A0AD8A45AEF0AF05CEF0AF079EF51
:1014B6000AF0F1C0D9FFF2C0DAFFDE2A000EDD2203
:1014C600F3C0D9FFF4C0DAFFDFCFF5F0020EDE2657
:1014D600DFCFF6F0000EDD22F5C0D9FFF6C0DAFF49
:1014E600DECF31F0DDCF32F0BEEF0AF0F1C0D9FF2A
:1014F600F2C0DAFFDECF67F0DDCF68F07AEC16F0E7
:1015060067C031F068C032F090EF0AF0F1C0D9FF41
:10151600F2C0DAFFDE2A000EDD22D00E0001F56FE2
:10152600FF0EF66FF1C0D9FFF2C0DAFFDECFF6FF8D
:10153600DDCFF7FF0800F550F76FF86BF551F72789
:10154600F651F823F8510AE10A0EF75DD8A0AEEF7E
:101556000AF0B1EF0AF0010EB2EF0AF0000E010137
:101566007E6F7F6B7E517F11D8A4BCEF0AF0BEEF71
:101576000AF089EF0AF0F1C0D9FFF2C0DAFFDECF38
:10158600F6FFDDCFF7FF0800F5500001666F676BC9
:101596001FEC22F0000166510101866F8651D8B416
:1015A600D7EF0AF0D9EF0AF017EF0BF0F1C0D9FF29
:1015B600F2C0DAFFDECFF5F0DDCFF6F0010E000166
:1015C600F527000EF623F5C0F6FFF6C0F7FF080074
:1015D600F550666F676B1FEC22F000016651010142
:1015E600876F8751D8B4FAEF0AF0FCEF0AF017EFCD
:1015F6000BF0F1C0D9FFF2C0DAFFDECFF5F0DDCF98
:10160600F6F0020E0001F527000EF623F5C0F6FFF0
:10161600F6C0F7FF0800F550666F676B1FEC22F007
:10162600000166510101886FF1C0D9FFF2C0DAFFEF
:10163600DECFF6FFDDCFF7FF0800F550640AD8B419
:1016460027EF0BF029EF0BF03BEF0BF0F1C0D9FFC2
:10165600F2C0DAFFDECFF6FFDDCFF7FF0800F55068
:10166600690AD8A439EF0BF03BEF0BF07BEF0BF0D8
:10167600F1C0D9FFF2C0DAFFDE2A000EDD22F3C088
:10168600D9FFF4C0DAFFDFCFF5F0020EDE26DFCF9A
:10169600F6F0000EDD22F5C0D9FFF6C0DAFFDECF88
:1016A60076F1DDCF77F1000E77BFFF0E786F796F99
:1016B6007A6F7B6F7C6F7D6FEFC07BF0F0C07CF044
:1016C60076C17DF077C17EF078C17FF079C180F078
:1016D6007AC181F07BC182F07CC183F07DC184F048
:1016E600F2EC12F07BC0EFF07CC0F0F0ACEF0CF047
:1016F600660E8619D8A482EF0BF084EF0BF0C4EFC8
:101706000BF0F1C0D9FFF2C0DAFFDECFF6FFDDCF76
:10171600F7FF0800F5CF89F1F1C0D9FFF2C0DAFF73
:10172600DE2A000EDD22F3C0D9FFF4C0DAFFDFCFD8
:10173600F5F0040EDE26DFCFF6F0000EDD22F5C052
:10174600D9FFF6C0DAFFDECF82F1DECF83F1DECF3E
:1017560084F1DECF85F1EFC0ABF0F0C0ACF082C112
:10176600ADF083C1AEF084C1AFF085C1B0F089C1E0
:10177600B1F02BEC04F0ABC0EFF0ACC0F0F0ACEF86
:101786000CF0860E0001606F010E616F4C0E626FE9
:10179600080E636F000E656F020E646FF6EC1DF0A7
:1017A600000160516111D8A4DBEF0BF0DDEF0BF007
:1017B60059EF0CF0F1C0D9FFF2C0DAFFDECFF5F039
:1017C600DDCFF6F0010EF527000EF623F5C0F6FF85
:1017D600F6C0F7FF0800F5CF89F1BF0EF56FFF0ED3
:1017E600F66FF1C0D9FFF2C0DAFFDECFF6FFDDCF2C
:1017F600F7FF0800F550F76FF86BF551F727F6512C
:10180600F823F8510AE11A0EF75DD8A00DEF0CF097
:1018160010EF0CF0010E11EF0CF0000E0101806FBD
:10182600816B80518111D8B41BEF0CF01DEF0CF0C9
:1018360037EF0CF0F3C0D9FFF4C0DAFFDFCFF5F0D5
:10184600040EDE26DFCFF6F0000EDD22F5C0D9FF4E
:10185600F6C0DAFFDECF82F1DECF83F1DECF84F190
:10186600DECF85F14FEF0CF0F3C0D9FFF4C0DAFFFD
:10187600DFCFF5F0040EDE26DFCFF6F0000EDD2218
:10188600F5C0D9FFF6C0DAFFDECF82F1DECF83F1F5
:10189600DECF84F1DECF85F1020EF1C0D9FFF2C0B2
:1018A600DAFFDE26000EDD22AEEF0BF0F1C0D9FF27
:1018B600F2C0DAFFDECFF6FFDDCFF7FF0800F55006
:1018C600250AD8A469EF0CF06BEF0CF083EF0CF04F
:1018D600F1C0D9FFF2C0DAFFDE2A000EDD22000ECB
:1018E600616F250E606FEFC062F0F0C063F062ECCE
:1018F6001EF0000E0001F06F010EEF6FACEF0CF062
:10190600F1C0D9FFF2C0DAFFDE2A000EDD22000E9A
:10191600F06F000EEF6FACEF0CF0F1C0D9FFF2C024
:10192600DAFFDECFF6FFDDCFF7FF0800F550000146
:10193600606F616BEFC062F0F0C063F062EC1EF0A6
:10194600F1C0D9FFF2C0DAFFDE2A000EDD227CEFFD
:101956000CF0120000019251800B9B6F9251922560
:101966009D6F91AFB9EF0CF0BBEF0CF0BCEF0CF034
:101976009D819D51D8B4C2EF0CF0C4EF0CF0D9EFA5
:101986000CF09D29D8A4CAEF0CF0CCEF0CF0D4EFE4
:101996000CF0000E8F6F000E906F000E916F000E10
:1019A600926F918F000E926FE1EF0CF0000E8F6F29
:1019B600000E906F000E916F000E926F9651800B85
:1019C6009C6F9B519C19D8B4EBEF0CF0EDEF0CF02B
:1019D600EEEF0CF09B8D965196259C6F95AFF6EF2A
:1019E6000CF0F8EF0CF0F9EF0CF09C819C51D8B498
:1019F600FFEF0CF001EF0DF016EF0DF09C29D8A4C7
:101A060007EF0DF009EF0DF011EF0DF0000E936FDB
:101A1600000E946F000E956F000E966F958F000E58
:101A2600966F1EEF0DF0000E936F000E946F000E72
:101A3600956F000E966F9D519C5DD8B025EF0DF009
:101A460027EF0DF04EEF0DF09BAD2CEF0DF02EEFC6
:101A56000DF030EF0DF0800E9B1B9DC09EF09CC0DC
:101A66009DF09EC09CF08FC09EF093C08FF09EC0EC
:101A760093F090C09EF094C090F09EC094F091C0F8
:101A86009EF095C091F09EC095F092C09EF096C0D3
:101A960092F09EC096F0000E9E6F9D519CC097F0EE
:101AA600986B975F000E985B98BF63EF0DF09851A7
:101AB60009E11A0E975DD8A063EF0DF065EF0DF002
:101AC6009CEF0DF08F51901191119211D8A46EEFE9
:101AD6000DF071EF0DF0010E72EF0DF0000E9E6F1E
:101AE600000E8F6F000E906F000E916F000E926FBA
:101AF6009CC09DF0A5EF0DF09EA184EF0DF086EF42
:101B06000DF08CEF0DF0D8909E3101099E6F8EEF8F
:101B16000DF0D8909E338FA193EF0DF095EF0DF059
:101B260096EF0DF09E8F92359233913390338F332B
:101B36009D2B9C519D5DD8A0A3EF0DF0A5EF0DF058
:101B46007FEF0DF09BBDAAEF0DF0ACEF0DF0ECEFC3
:101B56000DF09D51D8A4B2EF0DF0B4EF0DF0BEEF2D
:101B66000DF0000E8F6F000E906F000E916F000E3D
:101B7600926F0DEF0FF093518F279451902395514B
:101B860091239651922392A1CBEF0DF0CDEF0DF05C
:101B960079EF0EF09EA1D2EF0DF0D4EF0DF0DAEF53
:101BA6000DF0D8909E3101099E6FDCEF0DF0D890B4
:101BB6009E338FA1E1EF0DF0E3EF0DF0E4EF0DF0B2
:101BC6009E8F92359233913390338F339D2B79EFDD
:101BD6000EF093518F5D94519059955191599251B0
:101BE600800A976F9651800A9759D8B0FDEF0DF08D
:101BF600FFEF0DF02AEF0EF08F51935D976F905126
:101C06009459986F91519559996F925196599A6F27
:101C1600FF0E97258F6FFF0E9821906FFF0E99216B
:101C2600916FFF0E9A21926F800E9B1B9E6D9E51A7
:101C3600D8A420EF0EF022EF0EF032EF0EF0010ED8
:101C46008F27000E90239123922332EF0EF09351AB
:101C56008F5F9451905B9551915B9651925B8F513A
:101C6600901191119211D8A43BEF0EF03DEF0EF0BA
:101C760072EF0EF09E51D8A443EF0EF045EF0EF032
:101C860072EF0EF0000E8F6F000E906F000E916FC8
:101C9600000E926F0DEF0FF0D8908F379037913777
:101CA60092379EAF59EF0EF05BEF0EF05CEF0EF041
:101CB6008F819EA161EF0EF063EF0EF067EF0EF0DD
:101CC600D8809E3769EF0EF0D8909E379D51D8B4D4
:101CD6006FEF0EF071EF0EF072EF0EF09D0791AF01
:101CE60077EF0EF079EF0EF04FEF0EF0000E9C6FCF
:101CF6009EAF80EF0EF082EF0EF09AEF0EF09EC0D0
:101D060097F07F0E9717D8B48BEF0EF08DEF0EF08D
:101D160091EF0EF0010E9C6F9AEF0EF08FA196EFE9
:101D26000EF098EF0EF09AEF0EF08DEF0EF09C513C
:101D3600D8B4A0EF0EF0A2EF0EF0CDEF0EF0010E2C
:101D46008F27000E90239123922392A1ADEF0EF0E0
:101D5600AFEF0EF0CDEF0EF08FC097F090C098F079
:101D660091C099F092C09AF09A359A339933983384
:101D7600973397C08FF098C090F099C091F09AC0B1
:101D860092F09D29D8B4CAEF0EF0CCEF0EF0CDEF4D
:101D96000EF09D2B9D29D8B4D3EF0EF0D5EF0EF0A3
:101DA600DDEF0EF09D51D8A4DBEF0EF0DDEF0EF067
:101DB600EFEF0EF0000E8F6F000E906F000E916F1A
:101DC600000E926F9D51D8A4EBEF0EF0EDEF0EF0E2
:101DD600EFEF0EF0000E9B6F9DA1F4EF0EF0F6EF05
:101DE6000EF0F9EF0EF0918FFAEF0EF0919FD8906A
:101DF6009D31926F9BAF02EF0FF004EF0FF005EFEE
:101E06000FF0928F8FC08FF090C090F091C091F03C
:101E160092C092F0120000017951800B826F7951C5
:101E26007925886F78AF1AEF0FF01CEF0FF01DEFD2
:101E36000FF088818851D8B423EF0FF025EF0FF00B
:101E460038EF0FF08829D8A42BEF0FF02DEF0FF005
:101E560035EF0FF0000E766F000E776F000E786F7D
:101E6600000E796F788F40EF0FF0000E766F000E40
:101E7600776F000E786F000E796F7D51800B821B95
:101E86007D517D25836F7CAF4BEF0FF04DEF0FF04B
:101E96004EEF0FF083818351D8B454EF0FF056EF15
:101EA6000FF069EF0FF08329D8A45CEF0FF05EEF17
:101EB6000FF066EF0FF0000E7A6F000E7B6F000ECC
:101EC6007C6F000E7D6F7C8F71EF0FF0000E7A6FC6
:101ED600000E7B6F000E7C6F000E7D6F8351D8B4B1
:101EE60077EF0FF079EF0FF081EF0FF08851D8A45C
:101EF6007FEF0FF081EF0FF08BEF0FF0000E766F94
:101F0600000E776F000E786F000E796F23EF11F0D9
:101F16007C517603F3CF8DF0F4CF8EF08D51846F24
:101F2600856B866B876B8E51896F8A6B8B6B8C6B1F
:101F36007B517703F3CF8DF0F4CF8EF08D5184274C
:101F4600000E8523862387238E518927000E8A2338
:101F56008B238C237A517803F3CF8DF0F4CF8EF058
:101F66008D518427000E8523862387238E5189274A
:101F7600000E8A238B238C2386C087F085C086F0CB
:101F860084C085F0846B7A517703F3CF8DF0F4CF5C
:101F96008EF08D5184278E518523000E8623000EE8
:101FA60087237B517603F3CF8DF0F4CF8EF08D51DE
:101FB60084278E518523000E8623000E872386C034
:101FC60087F085C086F084C085F0846B7A517603ED
:101FD600F3CF8DF0F4CF8EF08D5184278E5185236B
:101FE600000E8623000E87237C517703F3CF8DF0F6
:101FF600F4CF8EF08D5189278E518A23000E8B23C4
:10200600000E8C237B517803F3CF8DF0F4CF8EF046
:102016008D5189278E518A23000E8B23000E8C2327
:102026007C517803F3CF8DF0F4CF8EF08D517E6F17
:102036008E517F6F806B816B80C081F07FC080F096
:102046007EC07FF07E6B7E5189277F518A23805127
:102056008B2381518C2384C07EF085C07FF086C09F
:1020660080F087C081F0190E3EEF10F0D8908133D2
:1020760080337F337E33E82E39EF10F07E51892787
:102086007F518A2380518B2381518C2386C087F010
:1020960085C086F084C085F0846B835188C07EF04D
:1020A6007F6B7E27000E7F23820E7E258D6FFF0EAF
:1020B6007F218E6F74EF10F0D89089378A378B376F
:1020C6008C3787AF69EF10F06BEF10F06CEF10F004
:1020D6008981D89084378537863787378D07D8A08A
:1020E6008E078BAF79EF10F07BEF10F05FEF10F0FB
:1020F600000E836F87AF82EF10F084EF10F0A8EF29
:1021060010F0FF0E84157E6FFF0E85157F6FFF0E94
:102116008615806F7F0E8715816F7E517F11801126
:102126008111D8B499EF10F09BEF10F09FEF10F0EB
:10213600010E836FA8EF10F089A1A4EF10F0A6EFAF
:1021460010F0A8EF10F09BEF10F08351D8B4AEEF6B
:1021560010F0B0EF10F0D4EF10F0010E8927000E4A
:102166008A238B238C238CA1BBEF10F0BDEF10F0DC
:10217600D4EF10F089C07EF08AC07FF08BC080F06B
:102186008CC081F08135813380337F337E337EC0CE
:1021960089F07FC08AF080C08BF081C08CF08D4BB7
:1021A6008E2B8EBFDFEF10F08E5108E18D29D8A05F
:1021B600DFEF10F0E1EF10F0EBEF10F0000E896F9B
:1021C600000E8A6F800E8B6F7F0E8C6F19EF11F0E9
:1021D6008EBFF8EF10F08E5106E18D05D8B0F6EF00
:1021E60010F0F8EF10F004EF11F0000E896F000EFA
:1021F6008A6F000E8B6F000E8C6F000E826F19EFC8
:1022060011F08DC088F0FF0E8917FF0E8A177F0E1A
:102216008B17000E8C1788A113EF11F015EF11F034
:1022260016EF11F08B8FD89088318C6F82518C13FA
:1022360089C076F08AC077F08BC078F08CC079F0D0
:10224600120000017951800B866F795179258D6FC7
:1022560078AF30EF11F032EF11F033EF11F08D81DE
:102266008D51D8B439EF11F03BEF11F050EF11F06A
:102276008D29D8A441EF11F043EF11F04BEF11F087
:10228600000E766F000E776F000E786F000E796F76
:10229600788F000E796F58EF11F0000E766F000EF2
:1022A600776F000E786F000E796F7D51800B861B5D
:1022B6007D517D258E6F7CAF63EF11F065EF11F0D8
:1022C60066EF11F08E818E51D8B46CEF11F06EEF7F
:1022D60011F083EF11F08E29D8A474EF11F076EF88
:1022E60011F07EEF11F0000E7A6F000E7B6F000E7C
:1022F6007C6F000E7D6F7C8F000E7D6F8BEF11F073
:10230600000E7A6F000E7B6F000E7C6F000E7D6FE5
:102316007A517B117C117D11D8A494EF11F096EFC0
:1023260011F0AEEF11F0000E766F000E776F000E13
:10233600786F000E796F800E78137F0E79138651B1
:10234600791376C076F077C077F078C078F079C0E8
:1023560079F0F1EF12F08D51D8A4B4EF11F0B6EF89
:1023660011F0C0EF11F0000E766F000E776F000EC1
:10237600786F000E796FF1EF12F08E518DC07EF0FE
:102386007F6B7E5F000E7F5B7F0E7E25876F000E64
:102396007F21886F76C082F077C083F078C084F0A2
:1023A60079C085F0000E766F000E776F000E786F9D
:1023B600000E796F000E896F000E8A6F000E8B6F0C
:1023C600000E8C6F000E8E6F21EF12F08E51D8B476
:1023D600EFEF11F0F1EF11F008EF12F0D89082371D
:1023E600833784378537D890763777377837793794
:1023F6008CAF00EF12F002EF12F003EF12F07681CD
:10240600D89089378A378B378C377A51825D7B51E2
:1024160083597C5184597D518559D8A015EF12F006
:1024260017EF12F020EF12F08C8D7A51825F7B51FC
:10243600835B7C51845B7D51855B8E2B190E8E658B
:1024460027EF12F029EF12F0E9EF11F08251831114
:1024560084118511D8B432EF12F034EF12F04CEF3C
:1024660012F089814CEF12F0D890763777377837AB
:1024760079378CAF41EF12F043EF12F044EF12F0D0
:102486007681D89089378A378B378C378707D8A0DB
:10249600880778AF51EF12F053EF12F037EF12F0D2
:1024A600000E8E6F8CAF5AEF12F05CEF12F080EFD9
:1024B60012F0FF0E89157E6FFF0E8A157F6FFF0ED5
:1024C6008B15806F7F0E8C15816F7E517F11801169
:1024D6008111D8B471EF12F073EF12F077EF12F0AA
:1024E600010E8E6F80EF12F076A17CEF12F07EEF78
:1024F60012F080EF12F073EF12F08E51D8B486EF1F
:1025060012F088EF12F0ACEF12F0010E7627000EF3
:1025160077237823792379A193EF12F095EF12F0C0
:10252600ACEF12F076C07EF077C07FF078C080F016
:1025360079C081F08135813380337F337E337EC02D
:1025460076F07FC077F080C078F081C079F0874B55
:10255600882B88BFB7EF12F0885108E18729D8A0E9
:10256600B7EF12F0B9EF12F0C4EF12F0000E886F59
:102576008769000E766F000E776F000E786F000E7B
:10258600796F88BFD1EF12F0885106E18705D8B080
:10259600CFEF12F0D1EF12F0DFEF12F0000E886FDE
:1025A600000E876F000E766F000E776F000E786F45
:1025B600000E796F000E866F87C08DF08DA1E6EF55
:1025C60012F0E8EF12F0EBEF12F0788FECEF12F06A
:1025D600789FD8908D31796FA2EF11F012007DC0EF
:1025E60095F07EC096F07FC097F080C098F081C0CD
:1025F60099F082C09AF083C09BF084C09CF00001E1
:102606009CBF08EF13F00BEF13F0010E0CEF13F065
:10261600000E936F946B93519411D8B415EF13F089
:1026260017EF13F027EF13F09C1F9B1F9A1F991F9C
:10263600981F971F961F956D000E96239723982334
:1026460099239A239B239C2332BE2CEF13F02EEF63
:1026560013F02FEF13F0339232BE3CEF13F03250EB
:1026660006E13104D8B03AEF13F03CEF13F042EF35
:1026760013F0000E906F010E8F6F46EF13F031C00E
:102686008FF032C090F02FC091F030C092F093518D
:102696009411D8A451EF13F053EF13F05AEF13F03F
:1026A60033A458EF13F05AEF13F05DEF13F09107D0
:1026B600D8A09207000E9E6F4F0E9D6F000E01016F
:1026C600576FE3EF13F09D07D8A09E07080E9D25D0
:1026D600D96E010E9E21DA6E95C060F096C061F04B
:1026E60097C062F098C063F099C064F09AC065F034
:1026F6009BC066F09CC067F00A0E686F000E696F9B
:10270600000E6A6F000E6B6F000E6C6F000E6D6F21
:10271600000E6E6F000E6F6F1AEC1AF060C085F037
:1027260061C086F062C087F063C088F064C089F03B
:1027360065C08AF066C08BF067C08CF085C072F009
:1027460087C073F049EC24F000017251300FDF6E40
:102756008F07D8A090079107D8A0920795C060F080
:1027660096C061F097C062F098C063F099C064F0BB
:102776009AC065F09BC066F09CC067F00A0E686F51
:10278600000E696F000E6A6F000E6B6F000E6C6FA5
:10279600000E6D6F000E6E6F000E6F6F55EC19F028
:1027A60060C095F061C096F062C097F063C098F083
:1027B60064C099F065C09AF066C09BF067C09CF053
:1027C60000019EBFEFEF13F09E5108E19D05D8A0D2
:1027D600EFEF13F0F1EF13F021EF14F0955196118E
:1027E6009711981199119A119B119C11D8A4FEEF7B
:1027F60013F000EF14F066EF13F090BF0DEF14F036
:10280600905106E18F05D8B00BEF14F00DEF14F0E0
:1028160066EF13F092BF18EF14F0925108E191059C
:10282600D8A018EF14F01AEF14F021EF14F033B219
:102836001FEF14F021EF14F066EF13F0935194118B
:10284600D8A428EF14F02AEF14F031EF14F033A4D3
:102856002FEF14F031EF14F04FEF14F09D07D8A0CE
:102866009E0793519411D8A43BEF14F03DEF14F05A
:1028760043EF14F0000E8E6F2B0E8D6F47EF14F0A2
:10288600000E8E6F2D0E8D6F080E9D25D96E010ED2
:102896009E21DA6E8DC0DFFF7BC070F07CC071F0C8
:1028A600080E9D25726F010E9E21736F91C074F004
:1028B60092C075F0C8EC1EF070C07BF071C07CF061
:1028C6001200ACEC25F0390E01018C6F000E8D6FF5
:1028D600310E8E6F080E8F6F04C190F105C191F114
:1028E60006C192F107C193F1000E956FDF0E946F4A
:1028F6003CEC23F06C0E01018C6F010E8D6F370ED0
:102906008E6F080E8F6F00C190F101C191F102C167
:1029160092F103C193F1000E956FDF0E946F3CECBC
:1029260023F0000E0001696F0D0E6A6F080E6B6FC3
:10293600010E27EC24F00B0E0001696F6C0E6A6F16
:10294600010E6B6F010E27EC24F00F0E0001696F6C
:10295600520E6A6F080E6B6F010E27EC24F0000E04
:102966000001696F010E6A6F080E6B6F020E27EC8D
:1029760024F00B0E0001696F390E6A6F000E6B6F43
:10298600020E27EC24F00F0E0001696F520E6A6FDB
:10299600080E6B6F020E27EC24F0000E0101A16FEA
:1029A600000EA06F030E0001616FE80E606FB9ECB8
:1029B60023F00101A04BA12BA1BFEBEF14F0A15115
:1029C60009E1050EA05DD8A0EBEF14F0EDEF14F0D1
:1029D600D5EF14F0ACEC25F0620E01018C6F010E00
:1029E6008D6F4F0E8E6F080E8F6FA4C190F1A5C12B
:1029F60091F1000E936FDF0E926F3CEC23F0580EB0
:102A060001018C6F010E8D6F4F0E8E6F080E8F6F4A
:102A1600A6C190F1A7C191F1000E936FDF0E926FE0
:102A26003CEC23F0000E0001696F190E6A6F080E68
:102A36006B6F010E27EC24F00B0E0001696F620E1E
:102A46006A6F010E6B6F010E27EC24F00D0E00016C
:102A5600696F520E6A6F080E6B6F010E27EC24F039
:102A6600000E0001696F250E6A6F080E6B6F020E6D
:102A760027EC24F00B0E0001696F580E6A6F010EE9
:102A86006B6F020E27EC24F00D0E0001696F520EDB
:102A96006A6F080E6B6F020E27EC24F0000E010120
:102AA600A36F000EA26F030E0001616FE80E606F48
:102AB600B9EC23F00101A24BA32BA3BF6CEF15F0D9
:102AC600A35109E1050EA25DD8A06CEF15F06EEFDB
:102AD60015F056EF15F0120025C09FF026C0A0F0A5
:102AE60027C0A1F028C0A2F08FC09FF090C0A0F030
:102AF60091C0A1F092C0A2F0810E0001936FFF0E6B
:102B0600946F9FC095F0A0C096F0A1C097F0A2C0A8
:102B160098F0180E94EF15F0D890983397339633B3
:102B26009533E82E8FEF15F0955193259D6F000E86
:102B360094219E6F9EBFA9EF15F09E5109E1170ED5
:102B46009D5DD8A0A9EF15F0ABEF15F0B5EF15F028
:102B56008FC08FF090C090F091C091F092C092F02B
:102B660079EF16F09EBFBAEF15F0BCEF15F02DEF1A
:102B760016F09DC093F0FF0E946FFF0E956F7F0EBB
:102B8600966F000E976F9367CBEF15F0D3EF15F0A6
:102B960097359733963395339433932FC6EF15F0C5
:102BA60094C099F095C09AF096C09BF097C09CF09F
:102BB600000199519F15936F9A51A015946F9B51DF
:102BC600A115956F9C51A215966F9351941195116D
:102BD6009611D8A4F1EF15F0F3EF15F0F5EF15F017
:102BE600ABEF15F09FC093F0A0C094F0A1C095F094
:102BF600A2C096F0200E05EF16F0D89096339533C6
:102C060094339333E82E00EF16F0935194119511F7
:102C16009611D8B411EF16F013EF16F01BEF16F05D
:102C260099519F279A51A0239B51A1239C51A223DE
:102C3600991D936F9A1D946F9B1D956F9C1D966FA2
:102C460093519F179451A0179551A1179651A2170A
:102C560071EF16F09FC093F0A0C094F0A1C095F05C
:102C6600A2C096F0200E3DEF16F0D890963395331D
:102C760094339333E82E38EF16F09351941195114F
:102C86009611D8A449EF16F04BEF16F055EF16F053
:102C9600000E9F6F000EA06F000EA16F000EA26FB8
:102CA60071EF16F0D8909F35936FA035946FA135CC
:102CB600956FA235966F9351941195119611D8B4CC
:102CC60067EF16F069EF16F071EF16F0000E9F6FC2
:102CD600000EA06F800EA16FBF0EA26F9FC08FF077
:102CE600A0C090F0A1C091F0A2C092F01200000E18
:102CF6000001756F000E746F000E6E6F000E6D6F23
:102D060087EF16F0674B682B010E736F67C0F6FFEF
:102D160068C0F7FFF86A070EF76403D00800F5509D
:102D260005D0F6CFE1FFF7CFE2FFE750200AD8B48F
:102D36009FEF16F0A1EF16F0CAEF16F0F70E00019E
:102D4600696FFF0E6A6F67C0F6FF68C0F7FFF86A23
:102D5600070EF76403D00800F55005D0F6CFE1FF63
:102D6600F7CFE2FFE75000016B6F6C6B69516B2781
:102D76006A516C236C5109E1050E6B5DD8A0C6EF54
:102D860016F0C8EF16F0CAEF16F0000E736F73C098
:102D96006FF00001706B6F517011D8A4D5EF16F06B
:102DA600D7EF16F085EF16F0E1EF16F0000E6E6F16
:102DB600010E6D6F674B682B2EEF17F067C0F6FF9D
:102DC60068C0F7FFF86A070EF76403D00800F550ED
:102DD60005D0F6CFE1FFF7CFE2FFE7500001696FBC
:102DE6006A6B6A51000AD8B4FBEF16F02EEF17F0A3
:102DF60069512B0AD8B4DDEF16F0060AD8B4D9EF1C
:102E060016F02EEF17F074C060F075C061F0000E7A
:102E1600636F0A0E626F67EC25F067C0F6FF68C045
:102E2600F7FFF86A070EF76403D00800F55005D0DF
:102E3600F6CFE1FFF7CFE2FFE7500001696F695176
:102E4600605F000E615B300E6025746F000E6121BD
:102E5600756FDDEF16F0D00E696FFF0E6A6F67C0F3
:102E6600F6FF68C0F7FFF86A070EF76403D008009C
:102E7600F55005D0F6CFE1FFF7CFE2FFE7500001AE
:102E86006B6F6C6B69516B276A516C236C510AE14D
:102E96000A0E6B5DD8A052EF17F055EF17F0010E32
:102EA60056EF17F0000E716F726B71517211D8A444
:102EB6005FEF17F061EF17F006EF17F06D516E1127
:102EC600D8A468EF17F06AEF17F078EF17F074C020
:102ED60069F075C06AF0691F6A1F694B6A2B69C081
:102EE60067F06AC068F07CEF17F074C067F075C0D1
:102EF60068F01200000E166E000E156E000E0F6EB4
:102F0600000E0E6E89EF17F0084A092A010E146E9C
:102F160008C0F6FF09C0F7FFF86A070EF76403D08A
:102F26000800F55005D0F6CFE1FFF7CFE2FFE750F6
:102F3600200AD8B4A1EF17F0A3EF17F0CAEF17F0E5
:102F4600F70E0A6EFF0E0B6E08C0F6FF09C0F7FFFC
:102F5600F86A070EF76403D00800F55005D0F6CFDF
:102F6600E1FFF7CFE2FFE7500C6E0D6A0A500C2620
:102F76000B500D220D5009E1050E0C5CD8A0C6EFD2
:102F860017F0C8EF17F0CAEF17F0000E146E14C052
:102F960010F0116A10501110D8A4D4EF17F0D6EF24
:102FA60017F087EF17F0E0EF17F0000E0F6E010E27
:102FB6000E6E084A092A2BEF18F008C0F6FF09C062
:102FC600F7FFF86A070EF76403D00800F55005D03E
:102FD600F6CFE1FFF7CFE2FFE7500A6E0B6A0B5020
:102FE600000AD8B4F9EF17F02BEF18F00A502B0AA5
:102FF600D8B4DCEF17F0060AD8B4D8EF17F02BEFE9
:1030060018F015C001F016C002F0000E046E0A0E8C
:10301600036E7BEC25F008C0F6FF09C0F7FFF86ADF
:10302600070EF76403D00800F55005D0F6CFE1FF90
:10303600F7CFE2FFE7500A6E0A50015E000E025A11
:10304600300E0124156E000E0220166EDCEF17F00E
:10305600D00E0A6EFF0E0B6E08C0F6FF09C0F7FF12
:10306600F86A070EF76403D00800F55005D0F6CFCE
:10307600E1FFF7CFE2FFE7500C6E0D6A0A500C260F
:103086000B500D220D500AE10A0E0C5CD8A04EEF33
:1030960018F051EF18F0010E52EF18F0000E126EF4
:1030A600136A12501310D8A45BEF18F05DEF18F0F6
:1030B60004EF18F00E500F10D8A464EF18F066EF66
:1030C60018F074EF18F015C00AF016C00BF00A1EBF
:1030D6000B1E0A4A0B2A0AC008F00BC009F078EF4B
:1030E60018F015C008F016C009F012000001706F44
:1030F60000017051D8B482EF18F084EF18F0A6EFF3
:1031060018F06BBF8BEF18F089EF18F0A6EF18F0E8
:1031160068C06CF069C06DF06AC06EF06BC06FF08D
:103126006C1F6D1F6E1F6F1F6C2B000E6D236E23A1
:103136006F236CC072F06DC073F06EC074F06FC018
:1031460075F0AEEF18F068C072F069C073F06AC02F
:1031560074F06BC075F0685169116A116B11D8A4CF
:10316600B7EF18F0B9EF18F0C3EF18F0000E686F5C
:10317600000E696F000E6A6F000E6B6F54EF19F048
:10318600960E716FCDEF18F0712BD890753374339E
:1031960073337233000E72156C6F000E73156D6FFC
:1031A600000E74156E6FFE0E75156F6F6C516D11F6
:1031B6006E116F11D8A4E2EF18F0E4EF18F0C7EF24
:1031C60018F0F2EF18F0712B010E7227000E732320
:1031D60074237523D8907533743373337233000EAA
:1031E60072156C6F000E73156D6F000E74156E6F91
:1031F600FF0E75156F6F6C516D116E116F11D8A49E
:1032060007EF19F009EF19F0E6EF18F011EF19F0D2
:103216007107D890723773377437753774BF16EFE6
:1032260019F018EF19F020EF19F0020E71611EEF78
:1032360019F020EF19F00BEF19F071B125EF19F025
:1032460027EF19F028EF19F0749FD890713371C0E9
:103256006CF06D6B6E6B6F6B6CC06FF06E6B6D6B45
:103266006C6B6C5172136D5173136E5174136F51F5
:1032760075137051D8B442EF19F044EF19F04CEFC2
:1032860019F06BBF4BEF19F049EF19F04CEF19F03D
:10329600758F72C068F073C069F074C06AF075C04B
:1032A6006BF01200000E0001716F6FBF5FEF19F037
:1032B6005DEF19F071EF19F06F1F6E1F6D1F6C1F18
:1032C6006B1F6A1F691F686D000E69236A236B23D3
:1032D6006C236D236E236F23010E716F67BF78EF2A
:1032E60019F076EF19F08AEF19F0671F661F651F50
:1032F600641F631F621F611F606D000E61236223DE
:1033060063236423652366236723010E711B20EE66
:1033160072F0070EDE6AE806FDE2685169116A116D
:103326006B116C116D116E116F11D8B49DEF19F000
:103336009FEF19F0F1EF19F0010E706FADEF19F074
:10334600D890683769376A376B376C376D376E37A1
:103356006F37702B6FAFB2EF19F0B4EF19F0A3EF20
:1033660019F0D890723773377437753776377737E1
:10337600783779376851605D695161596A51625988
:103386006B5163596C5164596D5165596E5166594B
:103396006F516759D8A0D2EF19F0D4EF19F0E5EFC5
:1033A60019F06851605F6951615B6A51625B6B51EC
:1033B600635B6C51645B6D51655B6E51665B6F510F
:1033C600675B7281D8906F336E336D336C336B33BA
:1033D6006A3369336833702FB4EF19F07151D8B47A
:1033E600F7EF19F0F9EF19F009EF1AF0791F781FC6
:1033F600771F761F751F741F731F726D000E732360
:1034060074237523762377237823792372C060F09B
:1034160073C061F074C062F075C063F076C064F08A
:1034260077C065F078C066F079C067F01200000ECC
:103436000001716F67BF24EF1AF022EF1AF036EF22
:103446001AF0671F661F651F641F631F621F611FD7
:10345600606D000E61236223632364236523662364
:103466006723010E716F6FBF3DEF1AF03BEF1AF045
:103476004DEF1AF06F1F6E1F6D1F6C1F6B1F6A1FBB
:10348600691F686D000E69236A236B236C236D2305
:103496006E236F23685169116A116B116C116D11DE
:1034A6006E116F11D8B45AEF1AF05CEF1AF0A4EF50
:1034B6001AF0010E706F6AEF1AF0D8906837693704
:1034C6006A376B376C376D376E376F37702B6FAF68
:1034D6006FEF1AF071EF1AF060EF1AF06851605D45
:1034E600695161596A5162596B5163596C516459FA
:1034F6006D5165596E5166596F516759D8A086EF5F
:103506001AF088EF1AF098EF1AF06851605F695167
:10351600615B6A51625B6B51635B6C51645B6D51BD
:10352600655B6E51665B6F51675BD8906F336E3328
:103536006D336C336B336A3369336833702F71EFD5
:103546001AF07151D8B4AAEF1AF0ACEF1AF0BCEF2A
:103556001AF0671F661F651F641F631F621F611FC6
:10356600606D000E61236223632364236523662353
:10357600672360C060F061C061F062C062F063C042
:1035860063F064C064F065C065F066C066F067C04D
:1035960067F01200000E0001616F010E606FA0EC73
:1035A60020F0000160C068F061C069F0000E69BFDC
:1035B600FF0E6A6F6B6F010E79EC18F068C076F03B
:1035C60069C077F06AC078F06BC079F0F60E00013A
:1035D6007A6F280E7B6F9C0E7C6F400E7D6F0EEC13
:1035E6000FF076C004F177C005F178C006F179C016
:1035F60007F104C176F005C177F006C178F007C17E
:1036060079F0000E00017A6F000E7B6F200E7C6F42
:10361600410E7D6F24EC11F076C004F177C005F100
:1036260078C006F179C007F1000E0001616F030E44
:10363600606FA0EC20F0000160C068F061C069F026
:10364600000E69BFFF0E6A6F6B6F010E79EC18F002
:1036560068C076F069C077F06AC078F06BC079F020
:10366600F60E00017A6F280E7B6F9C0E7C6F400E63
:103676007D6F0EEC0FF076C000F177C001F178C0D7
:1036860002F179C003F100C176F001C177F002C101
:1036960078F003C179F0000E00017A6F000E7B6F9F
:1036A600200E7C6F410E7D6F24EC11F076C000F188
:1036B60077C001F178C002F179C003F11200000E63
:1036C6000001936F000E946F000E956F3F0E966F7C
:1036D600A6C168F0A7C169F0000E69BFFF0E6A6F48
:1036E6006B6F010E79EC18F068C08FF069C090F02E
:1036F6006AC091F06BC092F0ADEC0CF08FC09FF0F9
:1037060090C0A0F091C0A1F092C0A2F004C1A3F0B5
:1037160005C1A4F006C1A5F007C1A6F076EC1CF021
:103726000001D8B099EF1BF09BEF1BF0ABEF1BF03D
:1037360035503610D8B4A2EF1BF0A4EF1BF0ABEF58
:103746001BF0000E386E010E376E8084F1EF1BF011
:1037560004C19FF005C1A0F006C1A1F007C1A2F007
:10376600000E936F000E946F000E956FBF0E966F4E
:10377600A6C168F0A7C169F0000E69BFFF0E6A6FA7
:103786006B6F010E79EC18F068C08FF069C090F08D
:103796006AC091F06BC092F0ADEC0CF08FC0A3F054
:1037A60090C0A4F091C0A5F092C0A6F076EC1CF0F3
:1037B6000001D8A0E1EF1BF0E3EF1BF0ECEF1BF0EC
:1037C60035503610D8A4EAEF1BF0ECEF1BF0F1EF02
:1037D6001BF0000E386E000E376E8094120000014A
:1037E60062356335696F6951D8A4FCEF1BF0FEEFB3
:1037F6001BF008EF1CF0000E606F000E616F000EEC
:10380600626F000E636F75EF1CF060C064F061C0FC
:1038160065F062C066F063C067F0200E18EF1CF01A
:10382600D8906733663365336433E82E13EF1CF0A4
:103836006451686F628FFF0E6017FF0E6117FF0EEF
:103846006217000E6317960E695F69BF2FEF1CF0B3
:103856002DEF1CF045EF1CF06951800A970FD8B088
:1038660037EF1CF039EF1CF03BEF1CF0FEEF1BF0BE
:10387600D8906333623361336033693F3BEF1CF0AA
:103886005DEF1CF01F0E69654BEF1CF04DEF1CF051
:1038960055EF1CF0FEEF1BF0D890603761376237AA
:1038A600633769076951D8A45BEF1CF05DEF1CF024
:1038B6004FEF1CF06851D8B463EF1CF065EF1CF0B5
:1038C6006DEF1CF0631F621F611F606D000E6123A8
:1038D6006223632360C060F061C061F062C062F081
:1038E60063C063F01200000E00019F15A76F000E63
:1038F600A015A86F800EA115A96F7F0EA215AA6F3D
:10390600A751A811A911AA11D8A48CEF1CF08EEF0B
:103916001CF096EF1CF0000E9F6F000EA06F000EBD
:10392600A16F000EA26F000EA315A76F000EA415BF
:10393600A86F800EA515A96F7F0EA615AA6FA751B1
:10394600A811A911AA11D8A4ABEF1CF0ADEF1CF079
:10395600B5EF1CF0000EA36F000EA46F000EA56F4E
:10396600000EA66FA2AFBAEF1CF0BCEF1CF0C5EFBD
:103976001CF09F6DA01FD8B0A02BA11FD8B0A12B03
:10398600800EA257A6AFCAEF1CF0CCEF1CF0D5EF05
:103996001CF0A36DA41FD8B0A42BA51FD8B0A52BCF
:1039A600800EA657000E9F1B000EA01B000EA11B2B
:1039B600800EA21B000EA31B000EA41B000EA51B4F
:1039C600800EA61BA3519F5DA451A059A551A159D4
:1039D600A651A259D8B0F2EF1CF0F4EF1CF0F7EFA5
:1039E6001CF0D890F8EF1CF0D880120029C06AF0BD
:1039F6002AC06BF02BC06CF02CC06DF060C06AF072
:103A060061C06BF062C06CF063C06DF06AC064F0B8
:103A16006BC065F06CC066F06DC067F0180E1AEFEB
:103A26001DF00001D8906733663365336433E82EA2
:103A360014EF1DF06451686F696B68516911D8A461
:103A460027EF1DF029EF1DF049EF1DF0D8906A35DC
:103A5600646F6B35656F6C35666F6D35676F645176
:103A6600651166116711D8A43BEF1DF03DEF1DF0FF
:103A760043EF1DF0000E616F020E606F78EF1DF0D0
:103A8600000E616F030E606F78EF1DF068296911F3
:103A9600D8A450EF1DF052EF1DF074EF1DF06AC070
:103AA60064F06BC065F06CC066F06DC067F0090E1F
:103AB600D8906437653766376737E82E5BEF1DF0B9
:103AC6006451651166116711D8B46CEF1DF06FEF84
:103AD6001DF0010E70EF1DF0000E606F616B78EF48
:103AE6001DF0000E616F040E606F12000600E1CF3C
:103AF6001AF0E2CF1BF0D9CF1CF0DACF1DF0F3CFCE
:103B06001EF0F4CF1FF0F6CF20F0F7CF21F0F8CF5C
:103B160022F0F5CF23F09EAA93EF1DF095EF1DF04E
:103B2600E0EF1DF09EAA9AEF1DF09CEF1DF095EFB9
:103B36001DF0AECF24F0490E2418D8A4A5EF1DF031
:103B4600A7EF1DF0A9EF1DF046EC21F0450E241855
:103B5600D8A4B0EF1DF0B2EF1DF0B4EF1DF07FEC6E
:103B660021F0520E2418D8A4BBEF1DF0BDEF1DF0B6
:103B7600BFEF1DF0D3EC25F0460E2418D8A4C6EFEF
:103B86001DF0C8EF1DF0CAEF1DF0E8EC25F04C0E55
:103B96002418D8A4D1EF1DF0D3EF1DF0D5EF1DF0FA
:103BA600DAEC25F0540E2418D8A4DCEF1DF0DEEF75
:103BB6001DF0E0EF1DF0E1EC25F023C0F5FF22C07B
:103BC600F8FF21C0F7FF20C0F6FF1FC0F4FF1EC09C
:103BD600F3FF1DC0DAFF1CC0D9FF1BC0E2FF1AC0ED
:103BE600E1FF4592110060C067F061C068F062C0F5
:103BF60069F063C06AF000016407D8A0650764290C
:103C060006E16529D8A40AEF1EF00CEF1EF019EFA5
:103C16001EF0000E616F000E606F61EF1EF0674BC5
:103C2600682B694B6A2B6407D8A0650767C0D9FF64
:103C360068C0DAFFDF50D8B423EF1EF025EF1EF080
:103C460050EF1EF069C0F6FF6AC0F7FF0800F55096
:103C56000009D8B431EF1EF033EF1EF050EF1EF01E
:103C660064516511D8B43AEF1EF03CEF1EF050EFE8
:103C76001EF067C0D9FF68C0DAFFDF50666F69C003
:103C8600F6FF6AC0F7FF0800F5506619D8B44EEF84
:103C96001EF050EF1EF012EF1EF067C0D9FF68C08D
:103CA600DAFFDF50666F69C0F6FF6AC0F7FF0800EB
:103CB600F550665D606F616BD8A061071200000168
:103CC60062516311D8B46AEF1EF06CEF1EF075EF07
:103CD6001EF062516311D8A473EF1EF075EF1EF04B
:103CE6007AEF1EF06051F2EC25F0C7EF1EF020EEE1
:103CF60004F06251D9266351DA22DE50DE10D8B4C0
:103D060087EF1EF089EF1EF0A4EF1EF020EE04F000
:103D16006251D9266351DA2210EE02F06251E12691
:103D26006351E222DE50E65CE650800A686FDE50A0
:103D3600800A6859D8B0A2EF1EF0A4EF1EF0C7EFB4
:103D46001EF020EE02F06251D9266351DA22DECF50
:103D560064F0DDCF65F062C0D9FF63C0DAFFDECF65
:103D660066F0DDCF67F064516625D96E655167212F
:103D7600DA6E60C0DFFF20EE02F06251D926635191
:103D8600DA22DE2A000EDD22120033A0CDEF1EF06D
:103D9600CFEF1EF0D9EF1EF072C069F073C06AF063
:103DA60070C06BF071C06CF003EC24F0000175BFBD
:103DB600DFEF1EF0E1EF1EF0E7EF1EF074C079F0C2
:103DC60075C07AF0EBEF1EF0000E7A6F000E796F79
:103DD600000E786F000E776FFEEF1EF0000E616F1B
:103DE600200E606F70C062F071C063F062EC1EF06E
:103DF6000001774B782B7951775D7851800A766F81
:103E06007A51800A7659D8A00BEF1FF00DEF1FF0FC
:103E1600F1EF1EF033B012EF1FF014EF1FF01EEF9C
:103E26001FF072C069F073C06AF070C06BF071C0A9
:103E36006CF003EC24F072C060F073C061F0E2EC49
:103E460024F0000179516025706F7A516121716FFC
:103E56001200000E0001656F63BF36EF1FF034EFEE
:103E66001FF03CEF1FF0626D631FD8B0632B010E8D
:103E7600656F61BF43EF1FF041EF1FF049EF1FF081
:103E8600606D611FD8B0612B010E651B000E676F58
:103E9600000E666F62516311D8B454EF1FF056EFEF
:103EA6001FF07EEF1FF0010E646F5EEF1FF0D890DB
:103EB60062376337642B63AF63EF1FF065EF1FF064
:103EC6005AEF1FF0D890663767376251605D6351CD
:103ED6006159D8A071EF1FF073EF1FF078EF1FF054
:103EE6006251605F6351615B6681D8906333623370
:103EF600642F65EF1FF06551D8B484EF1FF086EF8D
:103F06001FF08AEF1FF0666D671FD8B0672B66C07B
:103F160060F067C061F01200A4C168F0A5C169F045
:103F26000001000E69BFFF0E6A6F6B6F010E79EC20
:103F360018F068C09FF069C0A0F06AC0A1F06BC01D
:103F4600A2F000C1A3F001C1A4F002C1A5F003C113
:103F5600A6F076EC1CF00001D8B0B4EF1FF0B6EF77
:103F66001FF0D4EF1FF0000E366E010E356E355081
:103F76003610D8B4C1EF1FF0C5EF1FF0AB6BAB2BFB
:103F8600C7EF1FF00001AB6BAB3B8050AB19EF0BDB
:103F9600AB19806E35B002D0809A01D0808AF0EFDE
:103FA6001FF0000E366E000E356E35503610D8B442
:103FB600DFEF1FF0E3EF1FF0AB6BAB2BE5EF1FF06E
:103FC6000001AB6BAB3B8050AB19EF0BAB19806EAE
:103FD60035B002D0809A01D0808A1200000E00010E
:103FE600656F61BFFBEF1FF0F9EF1FF001EF20F0E7
:103FF600606D611FD8B0612B010E656F63BF08EF5E
:1040060020F006EF20F00CEF20F0626D631FD8B0B1
:10401600632B62516311D8B413EF20F015EF20F033
:1040260039EF20F0010E646F1DEF20F0D890623753
:104036006337642B63AF22EF20F024EF20F019EFF3
:1040460020F06251605D63516159D8A02DEF20F0D8
:104056002FEF20F033EF20F06251605F6351615B18
:10406600D89063336233642F24EF20F06551D8B4BF
:104076003FEF20F041EF20F045EF20F0606D611F2B
:10408600D8B0612B60C060F061C061F01200000E14
:1040960000016015686F000E6115696F800E62156C
:1040A6006A6F7F0E63156B6F685169116A116B1128
:1040B600D8A460EF20F062EF20F06AEF20F0000E47
:1040C600606F000E616F000E626F000E636F000E70
:1040D6006415686F000E6515696F800E66156A6F48
:1040E6007F0E67156B6F685169116A116B11D8A441
:1040F6007FEF20F081EF20F089EF20F0000E646F53
:10410600000E656F000E666F000E676F64516019D2
:104116000FE1655161190CE16651621909E16751B8
:104126006319D8B499EF20F09BEF20F09EEF20F0B2
:10413600D8909FEF20F0D880120060C062F0000196
:10414600D8906237D89062373C0E6217C250C30BC4
:104156006211C26EC2B2B2EF20F0B6EF20F0626B0F
:10416600622BB8EF20F00001626B010E636F622BC9
:10417600BFEF20F0D8906337622FBDEF20F0C2B0BA
:10418600C7EF20F0CCEF20F00001646B642BCEEF7C
:1041960020F00001646B010E656F642BD5EF20F0F3
:1041A600D8906537642FD3EF20F000016551631175
:1041B600C212C2B2E1EF20F0E3EF20F0DCEF20F014
:1041C600C350C4CF62F00001636B62C063F0626BE0
:1041D6006211666F6351676F66C060F067C061F019
:1041E6001200949C948E9FC068F0A0C069F00001F4
:1041F600000E69BFFF0E6A6F6B6F010E79EC18F047
:1042060068C07AF069C07BF06AC07CF06BC07DF054
:10421600000E0001766F240E776FF40E786F470E4E
:10422600796F24EC11F076C08FF077C090F078C0EB
:1042360091F079C092F0000E0001936F000E946F1A
:10424600800E956FBF0E966FADEC0CF08FC0A1F08F
:1042560090C0A2F091C0A3F092C0A4F0A1C060F0FB
:10426600A2C061F0A3C062F0A4C063F0F2EC1BF040
:1042760000016051AF6E200EAC6E900EAB6EF28EEA
:10428600F28C9D8A12009D9A9EA84CEF21F04EEF6B
:1042960021F047EF21F09EAA53EF21F055EF21F0D0
:1042A6004EEF21F0AECF17F09EA85CEF21F05EEF47
:1042B60021F057EF21F09EAA63EF21F065EF21F080
:1042C6005EEF21F0AECF18F0000E196E000E056EEF
:1042D600060E046E170E066E000E076E89EC24F0AD
:1042E600170E086E000E096E7DEC17F008C0A6F1D9
:1042F60009C0A7F19D8A12009D9A9EA885EF21F01C
:1043060087EF21F080EF21F09EAA8CEF21F08EEF4F
:1043160021F087EF21F0AECF17F09EA895EF21F0A0
:1043260097EF21F090EF21F09EAA9CEF21F09EEFEF
:1043360021F097EF21F0AECF18F0000E196E000EA7
:10434600056E000E046E170E066E000E076E89ECE3
:1043560024F0170E086E000E096E7DEC17F008C0EB
:10436600A4F109C0A5F19D8A1200000E0001776F25
:10437600060E766F000E7C6F000E7B6F780E7B2527
:10438600D96E000E7C21DA6E76C060F077C061F0DF
:10439600CCEC25F0DF6E0001764B772B7B4B7C2B2C
:1043A6007CBFDFEF21F07C5109E1020E7B5DD8A0D6
:1043B600DFEF21F0E1EF21F0C1EF21F0000E7A6F7F
:1043C600780E676F000E686F7AEC16F067C0A6F17C
:1043D60068C0A7F11200FBC08AF1FCC08BF1000E89
:1043E6002E6E000E2D6E0CEF22F0F9C0EFF0FAC023
:1043F600F0F08A0E0001F16F010EF26FFDC0F3F0CE
:10440600FEC0F4F00AEC0AF00001EF512D26F0513F
:104416002E228AC1F6FF8BC1F7FF0800F55000096E
:10442600D8A418EF22F01AEF22F0F8EF21F02DC0F1
:10443600F9F02EC0FAF01200BF0E0001686FFF0EF1
:10444600696F66C06AF067C06BF068516A27695188
:104456006B236B510AE11A0E6A5DD8A035EF22F084
:1044660038EF22F0010E39EF22F0000E6C6F6D6B03
:104476006C516D11D8B442EF22F044EF22F04BEFAD
:1044860022F0200E6611666F6751676F4FEF22F0BC
:1044960066C066F067C067F0120067EF22F067C07B
:1044A600F6FF68C0F7FFF86A070EF76403D0080046
:1044B600F55005D0F6CFE1FFF7CFE2FFE7508EECDF
:1044C60025F00001674B682B67C0F6FF68C0F7FF51
:1044D600F86A070EF76403D00800F55005D0F6CF4A
:1044E600E1FFF7CFE2FFE7500009D8A47DEF22F005
:1044F6007FEF22F052EF22F01200000E00017A6FD9
:10450600000E796F760E7925D96E000E7A21DA6E55
:1045160079C060F07AC061F0CCEC25F0DF6E000166
:10452600794B7A2B7ABFA1EF22F07A5109E1020E7C
:10453600795DD8A0A1EF22F0A3EF22F085EF22F05B
:10454600000E786F760E676F000E686F7AEC16F0C5
:1045560067C0A4F168C0A5F11200DE0EF66E4B0E20
:10456600F76E000EF86E01EEA4F010EE04F00900EE
:10457600F5CFEEFFE550E150FAE1E20EF66E4B0E96
:10458600F76E000EF86E0900F5CF43F00900F5CF7F
:1045960044F001EE00F0760EEE6AE806FDE100EE6C
:1045A60025F01E0EEE6AE806FDE145904592000EE6
:1045B600F86E00010EEF23F062C066F063C067F08C
:1045C60060C068F061C069F000016651646F6751B0
:1045D600656F664B672B64C0F6FF65C0F7FFF86A28
:1045E60068C0D9FF69C0DAFF684B692B070EF7640C
:1045F60003D00800F55005D0F6CFE1FFF7CFE2FF74
:10460600E750DF6EDF50D8A40BEF23F00DEF23F059
:10461600E7EF22F01200720ED36E000E0001616FFA
:104626000A0E606FB9EC23F06AEC24F0C2EC25F0B8
:1046360080EC22F0B8EC21F0000E0001616F1E0E36
:10464600606FB9EC23F092949298929A250E00012D
:10465600A06F800E9F6FF4EC20F0CDEC1AF08FEC7B
:104666001FF062EC1BF064EC14F030EF23F007EF60
:1046760000F0900E0101986F010E996F8CC19AF1AE
:104686008DC19BF1000E9D6F000E9C6F000E9F6FFB
:10469600000E9E6F9A0E0001F96F010EFA6F8EC121
:1046A600FBF08FC1FCF0980EFD6F010EFE6FEEEC75
:1046B60021F001019C518C25D96E9D518D21DA6E18
:1046C600000EDF6E1200010E0001666F200E6019EB
:1046D6006111D8B471EF23F073EF23F08CEF23F060
:1046E600F70E626FFF0E636F60C064F061C065F025
:1046F6006251642763516523655109E1050E645DC6
:10470600D8A088EF23F08AEF23F08CEF23F0000E79
:10471600666F66C060F0616B1200010E076E200EB8
:1047260001180210D8B49AEF23F09CEF23F0B5EFEE
:1047360023F0F70E036EFF0E046E01C005F002C0F3
:1047460006F00350052604500622065009E1050E20
:10475600055CD8A0B1EF23F0B3EF23F0B5EF23F05B
:10476600000E076E07C001F0026A1200000E00017B
:10477600636F000E626FD3EF23F0000E656F000EBD
:10478600646F644B652B655109E1510E645DD8A0D9
:10479600CFEF23F0D1EF23F0C4EF23F0624B632B6E
:1047A6006251605D63516159D8B0DCEF23F0DEEFF2
:1047B60023F0C0EF23F01200000E0001A31B000E31
:1047C600A41B000EA51B800EA61B9FC08FF0A0C0C9
:1047D60090F0A1C091F0A2C092F0A3C093F0A4C043
:1047E60094F0A5C095F0A6C096F0ADEC0CF08FC085
:1047F6009FF090C0A0F091C0A1F092C0A2F012006C
:10480600000E00016F6F000E6E6F16EF24F06DC084
:1048160060F0616B6BC062F06CC063F062EC1EF01E
:1048260000016E4B6F2B6E516925D96E6F516A214F
:10483600DA6EDF506D6F6D51D8A424EF24F026EFA9
:1048460024F00AEF24F0120000016C6F020E000142
:104856006C6130EF24F032EF24F03BEF24F0695125
:104866000F0B80096D6F6D519DEC25F042EF24F022
:1048760069510F0BC0096D6F6D519DEC25F06AC033
:1048860067F06BC068F050EC22F01200000173BFB5
:1048960057EF24F0735106E17205D8B055EF24F0B6
:1048A60057EF24F065EF24F072C074F073C075F012
:1048B600741F751F744B752B74C072F075C073F03E
:1048C60069EF24F072C072F073C073F01200000E2C
:1048D600936E000E956E000E0001616F0F0E606FF5
:1048E600B9EC23F0380E9DEC25F00C0E9DEC25F06E
:1048F600060E9DEC25F0010E9DEC25F0000E000144
:10490600616F020E606FB9EC23F012009BEF24F08A
:1049160004C001F005C002F006C0D9FF07C0DAFFE7
:10492600DF50036E50EC25F0044A052A064A072A92
:1049360006C0D9FF07C0DAFFDF50D8A4A5EF24F0E0
:10494600A7EF24F08BEF24F01200BF0E0001626F78
:10495600FF0E636F60C064F061C065F0625164274A
:104966006351652365510AE11A0E645DD8A0BEEF56
:1049760024F0C1EF24F0010EC2EF24F0000E606FA8
:10498600616B120000016051611162116311D8B4AC
:10499600CFEF24F0D1EF24F0D9EF24F0000E601B06
:1049A600000E611B000E621B800E631B60C060F070
:1049B60061C061F062C062F063C063F0120060C063
:1049C60062F061C063F0EBEF24F00001604B612BF5
:1049D60060C0D9FF61C0DAFFDF50D8A4F5EF24F03C
:1049E600F7EF24F0E8EF24F000016251605D606F9C
:1049F60063516159616F1200D00E0001626FFF0EA4
:104A0600636F60C064F061C065F0625164276351F2
:104A1600652365510AE10A0E645DD8A015EF25F0FD
:104A260018EF25F0010E19EF25F0000E606F616B8F
:104A36001200D00E036EFF0E046E01C005F002C018
:104A460006F0035005260450062206500AE10A0E17
:104A5600055CD8A031EF25F034EF25F0010E35EFD7
:104A660025F0000E016E026A120043EF25F002C027
:104A7600D9FF03C0DAFFDF50B7EC25F0024A032A5C
:104A860002C0D9FF03C0DAFFDF50D8A44DEF25F0EE
:104A96004FEF25F03AEF25F0120001C0A9FF03C041
:104AA600A8FFA69EA69CA684F29E550EA76EAA0EE9
:104AB600A76EA682F28EA1A863EF25F065EF25F01A
:104AC6005EEF25F0A1981200000160516203F3CF5A
:104AD60064F0F4CF65F060516303F35065276151CC
:104AE6006203F350652764C060F065C061F0120090
:104AF60001500302F3CF05F0F4CF06F00150040293
:104B0600F350062602500302F350062605C001F0B4
:104B160006C002F012000001666F66C08AFF8C8034
:104B26008C82000E0001616F010E606FB9EC23F0FC
:104B36008C9212000001666F66C08AFF8C908C8290
:104B4600000E0001616F010E606FB9EC23F08C92CC
:104B56001200010E9DEC25F0000E0001616F020EA1
:104B6600606FB9EC23F01200016E9EA8BDEF25F030
:104B7600BFEF25F0B8EF25F001C0ADFF1200926837
:104B86000E0EC16E920EC06E000EC46E000EC36E87
:104B9600120060C0A9FFA694A69EA680A850120087
:104BA600390E026E000E036E38EC25F01200580E18
:104BB600026E010E036E38EC25F01200620E026ED4
:104BC600010E036E38EC25F012006C0E026E010E1B
:104BD600036E38EC25F012001900180001001200CF
:020000040020DA
:08000000FFFFFFFFFFFFFFFF00
:020000040030CA
:0E00000000091F1EFF0385FF0FC00FE00F4019
:00000001FF
